:100000000C9461000C94D2010C94AB010C947E0012
:100010000C947E000C947E000C947E000C947E0068
:100020000C947E000C947E000C947E000C947E0058
:100030000C947E000C947E000C947E000C947E0048
:100040000C9461010C947E000C947E000C947E0054
:100050000C947E000C947E000C947E000C947E0028
:100060000C947E000C947E0000000000230026000B
:10007000290000000000240027002A0000000000E2
:10008000250028002B0004040404040404040202D4
:100090000202020203030303030301020408102007
:1000A0004080010204081020010204081020000012
:1000B0000008000201000003040700000000000027
:1000C000000011241FBECFEFD8E0DEBFCDBF11E08E
:1000D000A0E0B1E0EEE7F7E002C005900D92A63097
:1000E000B107D9F721E0A6E0B1E001C01D92AA3224
:1000F000B207E1F70E94F9010C94BD030C940000D3
:10010000833081F028F4813099F08230A1F0089595
:100110008730A9F08830B9F08430D1F48091800024
:100120008F7D03C0809180008F7780938000089539
:1001300084B58F7702C084B58F7D84BD089580918A
:10014000B0008F7703C08091B0008F7D8093B000A6
:1001500008951F93CF93DF93282F30E0F901E255E4
:10016000FF4F8491F901E656FF4FD491F901EA5708
:10017000FF4FC491CC23C1F0162F81110E94800043
:10018000EC2FF0E0EE0FFF1FE458FF4FA591B49164
:100190009FB7F894111104C08C91D095D82302C058
:1001A000EC91DE2BDC939FBFDF91CF911F910895DF
:1001B000CF93DF9390E0FC01E656FF4F2491FC01C2
:1001C000EA57FF4F8491882361F190E0880F991FCF
:1001D000FC01EE58FF4FC591D491FC01E458FF4F4C
:1001E000A591B491611109C09FB7F89488812095B9
:1001F00082238883EC912E230BC0623061F49FB779
:10020000F8948881322F309583238883EC912E2BAC
:100210002C939FBF06C08FB7F894E8812E2B2883BC
:100220008FBFDF91CF9108952FB7F8946091260189
:100230007091270180912801909129012FBF089585
:1002400008950F931F93CF93DF93C0911501D0E0D2
:10025000E1EBF0E08491EDE9F0E00491E9E8F0E011
:1002600014911123A1F081110E948000E12FF0E090
:10027000EE0FFF1FE859FF4FA591B491EC91E023D9
:1002800031E020E009F430E0832F922F02C080E0BB
:1002900090E0C817D90719F410921A0103C081E041
:1002A00080931A010E941401609316017093170144
:1002B0008093180190931901DF91CF911F910F91B5
:1002C00008951F920F920FB60F9211242F933F9310
:1002D0008F939F93AF93BF938091260190912701B5
:1002E000A0912801B09129013091250123E0230F2D
:1002F0002D3720F40196A11DB11D05C026E8230F5E
:100300000296A11DB11D2093250180932601909393
:100310002701A0932801B093290180912101909198
:100320002201A0912301B09124010196A11DB11DCC
:100330008093210190932201A0932301B093240183
:10034000BF91AF919F918F913F912F910F900FBED1
:100350000F901F9018951F920F920FB60F921124B5
:100360002F933F934F935F936F937F938F939F93BD
:10037000AF93BF93EF93FF93E0910201F0910301DC
:100380000995FF91EF91BF91AF919F918F917F91CF
:100390006F915F914F913F912F910F900FBE0F90F2
:1003A0001F9018951F920F920FB60F9211242F9342
:1003B0003F934F935F936F937F938F939F93AF93ED
:1003C000BF93EF93FF93E0910001F0910101099534
:1003D000FF91EF91BF91AF919F918F917F916F911D
:1003E0005F914F913F912F910F900FBE0F901F90F3
:1003F0001895789484B5826084BD84B5816084BD8D
:1004000085B5826085BD85B5816085BD80916E00B2
:10041000816080936E0010928100809181008260E3
:100420008093810080918100816080938100809120
:1004300080008160809380008091B100846080930F
:10044000B1008091B00081608093B00080917A000B
:10045000846080937A0080917A00826080937A0031
:1004600080917A00816080937A0080917A00806820
:1004700080937A001092C10060E083E00E94D8006F
:1004800061E086E00E94D80081E291E09093030150
:100490008093020180916900837F8460809369006A
:1004A000E99AAA24A3940FEF10E083EBE82E80E0F2
:1004B000F82E90E0C92E90E0D92EBB24B3940E9470
:1004C000140140901D0150901E0160901F0170901A
:1004D0002001DC01CB0184199509A609B70905970C
:1004E000A105B10508F476C00E94140160931D01B6
:1004F00070931E0180931F019093200180911C0135
:1005000090911B01891710F48F5F03C0981718F49E
:10051000815080931C01C0911C0161E0C11101C098
:1005200060E086E00E94A900C8018C1B9109EC01E3
:1005300061E085E00E94D800209711F460E004C0DB
:10054000CF3FD10529F461E085E00E94A90042C0B7
:10055000F70184918330F9F048F48130B9F08230AA
:10056000A1F584B5806284BDC8BD34C08730E9F090
:10057000883019F1843049F5809180008062809341
:100580008000D0938B00C0938A0024C084B580681B
:1005900084BDC7BD1FC080918000806880938000AB
:1005A000D0938900C093880015C08091B000806806
:1005B0008093B000C093B3000DC08091B000806202
:1005C0008093B000C093B40005C0C038D1050CF0D2
:1005D000BACFB4CF80911A018823D1F10E941401BF
:1005E0004090160150901701609018017090190109
:1005F000DC01CB0184199509A609B7090597A10566
:10060000B10530F1809115018A2580931501109272
:100610001A01882379F00E941401609311017093EC
:1006200012018093130190931401B0921001109263
:100630000F010EC00E94140160930B0170930C0116
:1006400080930D0190930E0110921001B0920F0152
:1006500080911001882309F44CC00E94140140903D
:100660001101509012016090130170901401DC018F
:10067000CB0184199509A609B7098C3D9540A105C0
:10068000B105B8F180910A01811106C0B0920A014A
:100690008091050180931B010E9414014090060186
:1006A000509007016090080170900901DC01CB01B6
:1006B00084199509A609B7090597A105B105C8F0E0
:1006C0009091040180911B01992321F08F3F39F013
:1006D0008F5F03C0882319F0815080931B010E9413
:1006E00014016093060170930701809308019093B1
:1006F000090180910F018823C9F180910B0190912C
:100700000C01A0910D01B0910E0140911101509189
:1007100012016091130170911401841B950BA60BBB
:10072000B70B80359105A105B105F0F08C3D9540E2
:10073000A105B105A0F480910A01882349F0109227
:100740000A0180911B018093050110921B010CC0CE
:10075000B0920A018091050180931B0105C0809130
:1007600004018A258093040110920F01C114D10461
:0E07700009F4A5CE0E940000A2CEF894FFCF9F
:06077E0020012001010131
:00000001FF
